:03000000020030CB
:030003000202D521
:0300130002047C68
:03000B000202C32B
:1000300075815075A887D288D28A75890175980014
:100040007587007450F543F5457419F544F5467508
:1000500047001219F5120769755001120829120696
:1000600014D5500612006D75500102005B7F01121D
:10007000183A12183AE54054F0B4000AE53B9544AA
:1000800030E7200200B5E53B954330E7030200B5B9
:10009000E547440154FDF547F59910990302009A8C
:1000A0000200C3E547440254FEF547F59910990252
:1000B00001AD0200C3E54754FCF547F599109903DB
:1000C0000200BD7F0212183A12183AE54054F0B40B
:1000D000000AE53B954630E72002010CE53B9545DB
:1000E00030E70302010CE547440454F7F547F5995E
:1000F0001099030200F002011AE547440854FBF589
:1001000047F59910990302010302011AE54754F3D8
:10011000F547F599109903020114E547540F60471C
:10012000E54730D028E54754056011900197858256
:1001300048858349900BA81219BC215C9001F38576
:100140008248858349900FA81219BC215C900270E7
:100150008582488583499013A81219BCD083D08228
:10016000900168C082C08322854983854882E493D8
:10017000F9A3E493F849600FE859B4FF02216889B4
:0C0180008C888AD28C8002C28CE4A3938D
:10018C00FAD28C1202CADAFBA3216EFD0804FD0818
:10019C0004FD3004FD8004FD8004FD3004FD0804E2
:1001AC00FCAE04FC4A04FC4A04FCAE04FD0804FD4D
:1001BC000806FCAE02FCAE08FD0804FD0804FD3088
:1001CC0004FD8004FD8004FD3004FD0804FCAE0435
:1001DC00FC4A04FC4A04FCAE04FD0804FCAE06FC1C
:1001EC004A02FC4A08FFFFFD8004FDC604FE2A04F7
:1001FC00FE5C02FDC602FDC610FE8404FE5C04FE1D
:10020C008402FE5C02FE2A02FD8002FDC610FD8007
:10021C0004FDC604FE2A04FE5C02FDC602FDC610E7
:10022C00FE8404FE5C04FE8402FE5C02FE2A02FDD7
:10023C008002FDC610FD0804FD0804FD8004FD08C5
:10024C0002FD8002FDC608FE2A04000002FDC60461
:10025C00FDC604FE2A02FDC602FDC602FE2A02FEEF
:10026C005C10FFFFFB0804FD8004FCAE03FD0801DD
:10027C00FD3004FD0802FB8C01FD0802FCAE01FC04
:10028C004A01FC0E01FC4A01FCAE04FB0004FD0813
:10029C0004FD8004FCAE03FD0801FD3004FD0802E2
:1002AC00FB8C01FD0802FCAE01FD0801FD3001FCD8
:1002BC00AE01FC4A04FFFF898C888AB297327F78A2
:1002CC007EC80000DEFCDFF822C2AF7400121950A9
:1002DC0012049330A5FD7D017E027F249009B0129B
:1002EC00198E7D017E047F24900B9012198E20A60E
:1002FC000630A6FD02034820A50330A50920B5EE63
:10030C0030B5FD02047630A5FD7D017E047F24907E
:10031C0009B012198E7D017E027F24900B90121968
:10032C008E20A60630A6FD0203DF20A50630A5FD13
:10033C000202DF20B5EB30B5FD02047630A5FD7D61
:10034C00027E007F039009C812198E7D027E007F09
:10035C002B900B9012198E20A60630A6FD02039945
:10036C0020A5F430A5FD7D027E007F03900B90123A
:10037C00198E7D027E007F2B9009C812198E20A643
:10038C000630A6FD0203BC20A5F402034820A70AF0
:10039C0030A7FD0543120493619920960A3096FD0F
:1003AC001543120493619920A6E330A6FD0203487D
:1003BC0020A70A30A7FD054412049361BC20960ABD
:1003CC003096FD154412049361BC20A6E330A6FDC3
:1003DC000202DF30A5FD7D027E067F039009C81264
:1003EC00198E7D027E067F2B900B9012198E20A603
:1003FC000630A6FD02043020A5F430A5FD7D027E5A
:10040C00067F03900B9012198E7D027E067F2B9037
:10041C0009C812198E20A60630A6FD02045320A589
:0A042C00F40203DF20A70A30A7FD49
:100436000545120493813020960A3096FD15451223
:100446000493813020A6E330A6FD0203DF20A70A2D
:1004560030A7FD0546120493815320960A3096FD77
:100466001546120493815320A6E330A6FD0202DF4F
:10047600D2AF12076932C28C75500AD083D08290EF
:10048600005BC082C083120769120614327D017EAA
:10049600027F009009E012198E7D017E047F009094
:1004A60009E012198E7D017E027F189009F8121953
:1004B6008E7D017E047F189009F812198E7D017ECB
:1004C600027F0C900AB812198E7D017E047F0C9073
:1004D6000AD012198E7D017E027F349009681219A6
:1004E6008E7D017E047F3490096812198E7D027E0E
:1004F600027F1C90098012198E7D027E047F1C905B
:10050600098012198EE5431218CEFC900AA054F009
:10051600C475F018A4C32582F582E5833400F583FB
:100526007D027E027F0012198EEC900AA0540F7590
:10053600F018A4C32582F582E5833400F5837D0295
:100546007E027F0C12198EE5441218CEFC900AA08A
:1005560054F0C475F018A4C32582F582E5833400EF
:10056600F5837D027E027F2812198EEC900AA05434
:100576000F75F018A4C32582F582E5833400F58350
:020586007D02F4
:100588007E027F3412198EE5451218CEFC900AA01F
:1005980054F0C475F018A4C32582F582E5833400AD
:1005A800F5837D027E047F0012198EEC900AA05418
:1005B8000F75F018A4C32582F582E5833400F5830E
:1005C8007D027E047F0C12198EE5461218CEFC902F
:1005D8000AA054F0C475F018A4C32582F582E583F7
:1005E8003400F5837D027E047F2812198EEC900A70
:1005F800A0540F75F018A4C32582F582E583340052
:10060800F5837D027E047F3412198E227F01121831
:100618003AE54054F0B400030206327D017E047FBF
:100628002890096812198E02063E7D017E047F28F3
:1006380090098012198EE54054F0B4100F7D017EA8
:10064800047F34900AB812198E0206607D017E0478
:100658007F34900AA012198EE540900AA0540F75B5
:10066800F018A4C32582F582E5833400F5837D0262
:100678007E047F0012198EE541900AA054F0C475DB
:10068800F018A4C32582F582E5833400F5837D0242
:100698007E047F0C12198EE541900AA0540F75F064
:1006A80018A4C32582F582E5833400F5837D027E94
:0D06B800047F2412198E7F0212183AE540CB
:1006C50054F0B400030206DC7D017E067F28900904
:1006D5006812198E0206E87D017E067F2890098042
:1006E50012198EE54054F0B4100F7D017E067F345B
:1006F500900AB812198E02070A7D017E067F349092
:100705000AA012198EE540900AA0540F75F018A49E
:10071500C32582F582E5833400F5837D027E067F5D
:100725000012198EE541900AA054F0C475F018A482
:10073500C32582F582E5833400F5837D027E067F3D
:100745000C12198EE541900AA0540F75F018A4C338
:100755002582F582E5833400F5837D027E067F24BC
:1007650012198E2212196DE4121950E41219227D04
:10077500017E007F1C900A2812198E7D027E007F63
:1007850000900A4012198E7D027E007F24900A583F
:1007950012198E7D017E027F34900A7012198E7DAA
:1007A500027E027F18900A8812198E7D017E047FD1
:1007B500009009E012198E7D017E067F009009E008
:1007C50012198E7D017E047F189009F812198E7D0D
:1007D500017E067F189009F812198E7D017E047F2F
:1007E5000C900AB812198E7D017E067F0C900AD0F6
:1007F50012198E7D027E047F18900A1012198E7DC3
:10080500027E067F18900A1012198E7D027E047FE3
:070815003090099812198EC2
:10081C007D027E067F3090099812198E22121A0CD6
:10082C00E536900AA054F0C475F018A4C32582F5DF
:10083C0082E5833400F5837D017E007F0412198EDE
:10084C00E536900AA0540F75F018A4C32582F582E2
:10085C00E5833400F5837D017E007F1012198EE54F
:10086C0034900AA054F0C475F018A4C32582F58204
:10087C00E5833400F5837D017E007F2812198EE517
:10088C0034900AA0540F75F018A4C32582F582E5A4
:10089C00833400F5837D017E007F3412198EE5339D
:1008AC00900AA054F0C475F018A4C32582F582E513
:1008BC00833400F5837D027E007F0C12198EE533A4
:1008CC00900AA0540F75F018A4C32582F582E58315
:1008DC003400F5837D027E007F1812198EE532906C
:1008EC000AA054F0C475F018A4C32582F582E583E0
:1008FC003400F5837D017E027F1C12198EE5329047
:10090C000AA0540F75F018A4C32582F582E5833430
:10091C0000F5837D017E027F2812198EE531900A45
:10092C00A054F0C475F018A4C32582F582E5833475
:10093C0000F5837D027E027F0012198EE531900A4C
:03094C00A0540FA5
:10094F0075F018A4C32582F582E5833400F5837D05
:10095F00027E027F0C12198E222020FC2020000024
:10096F000000000000000001000000000000000077
:10097F0000202020202000000000000000000000C8
:10098F00000000000000000000020502F80402024F
:10099F0002040E80000000000001020202020100AA
:1009AF0000000000800000806018060100000201B6
:1009BF00000106010000000000103070F0FCFFFC89
:1009CF00F070301000000806070303030706080045
:1009DF00000C04FC040C00000000000000000203E7
:1009EF000200000000000000000000303000000096
:1009FF0000000000000000030300000000000000E2
:100A0F000000808080000000000000000000030351
:100A1F000300000000000000001008E7242424FC5D
:100A2F0024242404000101010101010F010101012E
:100A3F00000000FE929292929292FE000008060130
:100A4F000000000008080F000000FE2222222222D0
:100A5F002222FE0000000F040404040404040F000B
:100A6F0000FE2222FE0008488808FF080007020245
:100A7F000700000009080F000020102C23E02020A1
:100A8F0023EC1020000008040300080808070000EA
:100A9F0000F8040404F80000000000000001020246
:100AAF000201000000000000000008FC0000000030
:100ABF000000000000000203020000000000000020
:100ACF0000188444241800000000000000030202F4
:100ADF0002020000000000000008042424D80000D7
:100AEF0000000000000102020201000000000000EF
:100AFF000040B088FC8000000000000000000000F3
:100B0F000302000000000000003C242424C4000065
:100B1F0000000000000102020201000000000000BE
:100B2F0000F824242CC00000000000000001020285
:100B3F000201000000000000000C04E41C0400008F
:100B4F000000000000000003000000000000000093
:100B5F0000D8242424D80000000000000001020265
:100B6F0002010000000000000038444444F8000077
:100B7F00000000000000030202010000000000005E
:100B8F000000000000000000000000000000000056
:100B9F000000000000000000000000000000000046
:100BAF000000000000000000000000000000000036
:100BBF000000000000000000000000000000000026
:100BCF000000000000000000000000000000000016
:100BDF000000000000000000000000000000000006
:100BEF0000000000000000000000000000000000F6
:100BFF0000000000000000000000000000000000E6
:100C0F0000000000000000000000000000000000D5
:100C1F0000000000000000000000000000000000C5
:100C2F0000000000000000000000000000000000B5
:100C3F0000000000000000000000000000000000A5
:100C4F000000000000000000000000000000000095
:100C5F000000000000000000000000000000000085
:100C6F000000000000000000000000000000000075
:100C7F000000000000000000000000000000000065
:100C8F000000000000000000000000000000000055
:100C9F000000000000000000000000000000000045
:100CAF000000000000000000000000000000000035
:0D0CBF00FCFCFC0000000000000000000034
:100CCC0000000000FCFCFC0000000000000000C064
:100CDC00E0F0F83C1C1C0E0E0E0E0E0E0E1C1C3CF6
:100CEC00F8F0E0C0000000001C1C1C1C1C1C1C1C90
:100CFC001C1CFCFCFC1C1C1C1C1C1C1C1C1C1C00A4
:100D0C0000000000000000000000000000000000D7
:100D1C0000000000000000000000000000000000C7
:100D2C0000000000000000000000000000000000B7
:100D3C00000000FFFFFFE0E0E0E0E0E0E0E0E0E0EA
:100D4C00E0E0E0E0FFFFFF000000000000F8FFFF24
:100D5C00FF03000000000000000000000000000085
:100D6C000003FFFFFFF8000000000000000000007F
:100D7C000000FFFFFF00000000000000000000006A
:100D8C000000000000000000000000000000000057
:100D9C000000000000000000000000000000000047
:100DAC000000000000000000000000000000000037
:100DBC00000000FFFFFF000000000000000000002A
:100DCC0000000000FFFFFF000000000000073FFFD5
:100DDC00FFF0C00000000000000000000000000058
:100DEC00C0F0FFFF3F070000000000000000000003
:100DFC000000FFFFFF0000000000000000000000EA
:100E0C0000000000000000000000000000000000D6
:100E1C0000000000000000000000000000000000C6
:100E2C0000000000000000000000000000000000B6
:100E3C000000001F1F1F0000000000000000000049
:100E4C00000000001F1F1F00000000000000000039
:100E5C000103070F0E0E1C1C1C1C1C1C1C0E0E0F61
:100E6C00070301000000000000000000000000006B
:100E7C0000001F1F1F000000000000000000000009
:100E8C000000000000000000000000000000000056
:100E9C000000000000000000000000000000000046
:100EAC000000000000000000000000000000000036
:100EBC000000000000000000000000000000000026
:1010A90000000000000000000000000080C0E0E037
:1010B900F07078383838383838387070F0E0E00037
:1010C90000000000000080C0E0F070703838383847
:1010D9003838387070F0E0C080000000000000006F
:1010E9000000F0F0F0000000000000000000000027
:1010F90000000000000000F0F0F070707070707077
:10110900707070F0E0E0E0C0808000000000000036
:1011190000000000000000000000000000000000C6
:10112900000000000000000000E0FCFFFF0F0301C9
:1011390000000000000000000000000000000100A5
:10114900000000E0FCFFFF0F0300000000000000AA
:10115900000000000000030FFFFFFCE0000000009A
:101169000000FFFFFF000000000000000000000079
:1011790000000000000000FFFFFF00000000000069
:101189000000000000010103071FFFFCF0800000C0
:101199000000000000000000000000000000000046
:1011A9000000000000000000001FFFFFFFC000005A
:1011B9000000000000000000000000000000000026
:1011C9000000001FFFFFFFC000000000000000003A
:1011D90000000000000000C0FFFFFF1F000000002A
:1011E9000000FFFFFF0000000000000000000000F9
:1011F90000000000000000FFFFFF000000000000E9
:10120900000000000000000000C0FFFF7F0F000089
:1012190000000000000000000000000000000000C5
:10122900000000000000000000000003070F1F1E5F
:101239003C38787070707070707038383C1C1E00C3
:10124900000000000003070F1F3C383870707070F1
:1012590070707038383C1F0F070300000000000051
:1012690000007F7F7F707070707070707070707028
:10127900707070000000007F7F7F707070707070F8
:1012890070707038383C3C1E0F0F030100000000DD
:101299000000000000000000000000000000000045
:1012A9000000000000000000000000000000000035
:1012B9000000000000000000000000000000000025
:1012C9000000000000000000000000000000000015
:10152600000000000000000000F8F8F800000000CD
:1015360000000000000000000000F8F8F8000000BD
:101546000000000000000000000000000000000095
:101556000000000000000000000000000000000085
:101566000000000000000000000000000000000075
:10157600000000000080C0E0F0F078383C1C1C1C25
:101586001C1C1C1C38387870F0000000000000009D
:101596000000000000000000000000000000000045
:1015A600000000000000000000FFFFFFC0C0C0C038
:1015B600C0C0C0C0C0C0C0C0C0C0FFFFFF000000A8
:1015C6000000000000000000000000000000000015
:1015D6000000000000000000000000000000000005
:1015E60000000000000000000000000000000000F5
:1015F600000000F0FEFFFF070100000000000000F1
:1016060000000000000000000000000000000000D4
:1016160000000000000000000000000000000000C4
:10162600000000000000000000FFFFFF01010101B3
:1016360001010101010101010101FFFFFF0000009D
:10164600000000001C1C1C1C1C1C1C1C1C1C00007C
:10165600000000001C1C1C1C1C1C1C1C1C1C00006C
:10166600000000001C1C1C1C1C1C1C1C1C1C00005C
:101676000000000F7FFFFFE0800000000000000078
:101686000000000000000000000000000000000054
:101696000000000000000000000000000000000044
:1016A6000000000000000000003F3F3F0000000077
:1016B600000000000000000000003F3F3F00000067
:1016C6000000000000000000000000000000000014
:1016D6000000000000000000000000000000000004
:1016E60000000000000000000000000000000000F4
:1016F60000000000000103070F0F1E1C3C3838389D
:10170600383838381C1C1E0E0F0000000000000080
:1017160000000000000000000000000000000000C3
:1017260000000000000000000000000000000000B3
:0D17360000000000000000000000000000A6
:101743000000000000000000000000000000000096
:101753000000000000000000000000000000000086
:101763000000000000000000000000000000000076
:101773000000000000000000000000000000000066
:101783000000000000000000000000000000000056
:101793000000000000000000000000000000000046
:0517A300000000000041
:1018EC00758000C2A2D2A1D2A02087FDC2A0222264
:1018FC001218ECC2A2C2A1F580D2A00000C2A02294
:10190C001218ECD2A2C2A1F580D2A00000C2A02273
:10191C0044B81218FC2244C01218FC22543F444014
:10192C001218FC22443E1218FC22B40006C2A4C2B7
:10193C00A3214FB40106C2A4D2A3214FB40204C206
:10194C00A3D2A4221219367F00EF12191C740012B4
:10195C0019287E00E412190C0EBE40F90FBF08E9DD
:10196C00221218ECE4121936E4121930E41219366A
:10197C007401121930E4121936E4121950E41219D8
:10198C002222ED121936EE12191CEF1219287D00C5
:10199C00ED9312190C0DBD0CF7EE0412191CEF127D
:1019AC0019287D00ED240C9312190C0DBD0CF52299
:1019BC007F007401121936EF12191CE41219287EDB
:1019CC0000E49312190C0EA3BE40F67402121936E1
:1019DC00EF12191CE41219287E00E49312190C0E54
:0919EC00A3BE40F60FBF08CA2299
:1017A800D2950000C2957903786BD8FED9FAD29504
:1017B8000000007825309505D8FB0217CAD2000230
:1017C80017CFC2000217D37875D8FED295227A08AF
:1017D800C3C2957B06DBFE1392957B17DBFED29581
:1017E80000DAEED295227C04793C7A08C3D29500BF
:1017F80000C295000000D2957B09DBFEA2957B17FD
:10180800DBFE13DAE7F709DCE12274551217D67EFE
:1018180000BF010E9018DCEE931217D60EBE08F723
:101828000139BF020C9018E4EE931217D60EBE08C9
:10183800F722D2951217A812181274441217D67DDF
:10184800E27EFF00DEFDDDF91217A812181274BE41
:101858001217D61217EEE53D54806014C3E53CF428
:101868002401F53CE53DF43400F53D754000800366
:1018780075400AE540C4F540E53C540F9018BE9306
:10188800F541E53C54F0C4F53CE53D540FC4453CF6
:10189800F53B1218CEF53C54F0C44540F540E53C04
:1018A800540FC44541F541EE600B540FC4FEE540AA
:1018B800540F4EF5402200010102030304040506FB
:0918C80006070808090975F0641F
:1018D10084FE740AC5F084C445F0222830C5B800DE
:0B18E10000008E2831C5B8000000B9DF
:1019F500C293C2920000D29279807800121A70794F
:101A05009078AB121A70227981121AAC88307983DA
:101A1500121AAC88317985121AAC88327987121A74
:101A2500AC88337989121AAC8834798B121AAC8850
:101A350035798D121AAC8836227980A830121A7041
:101A45007982A831121A707984A832121A707986AF
:101A5500A833121A707988A834121A70798AA835B1
:101A6500121A70798CA836121A7022C2930000D20D
:101A75009200E97A08130000C293000092940000D6
:101A8500D2930000DAEFC2930000E87A0813000051
:101A9500C293000092940000D2930000DAEFC29343
:101AA5000000C292000022C2930000D2920000E919
:101AB5007A08130000C293000092940000D29300AC
:101AC50000DAEF0000D294E4C37A08C2930000A2C2
:101AD500940000130000D2930000DAEFF8C29200E0
:021AE5000022DD
:101AE700D291D29000C29100000000C29022C29110
:101AF70000D29000000000D2910000C291C2902253
:101B0700C290D2910000D290000000A29140F1C291
:101B170091C290227F08339291D29000000000C2B8
:101B270090DFF3227F08E4D291C29000000000D238
:101B37009000000000A29133D291DFED2251E7E53A
:101B470037711B7107E538711B7107E539711B7117
:101B57000751F52251E7E537711B7107E538711B0E
:101B6700710751E70537E537711B7107712B51F580
:031B7700F53A221A
:00000001FF
